{
  "_format": "hh-sol-artifact-1",
  "contractName": "PancakeRouter_mod",
  "sourceName": "contracts/PancakeRouter_mod.sol",
  "abi": [
    {
      "inputs": [
        {
          "internalType": "address",
          "name": "_factory",
          "type": "address"
        },
        {
          "internalType": "address",
          "name": "_WETH",
          "type": "address"
        },
        {
          "internalType": "address",
          "name": "_LSRAddress",
          "type": "address"
        }
      ],
      "stateMutability": "nonpayable",
      "type": "constructor"
    },
    {
      "anonymous": false,
      "inputs": [
        {
          "indexed": true,
          "internalType": "uint256",
          "name": "amountA",
          "type": "uint256"
        },
        {
          "indexed": true,
          "internalType": "uint256",
          "name": "amountB",
          "type": "uint256"
        }
      ],
      "name": "AddLiquidity",
      "type": "event"
    },
    {
      "anonymous": false,
      "inputs": [
        {
          "indexed": true,
          "internalType": "address",
          "name": "_token",
          "type": "address"
        },
        {
          "indexed": true,
          "internalType": "uint256",
          "name": "_fee",
          "type": "uint256"
        }
      ],
      "name": "FeeCharged",
      "type": "event"
    },
    {
      "anonymous": false,
      "inputs": [
        {
          "indexed": true,
          "internalType": "bytes32",
          "name": "role",
          "type": "bytes32"
        },
        {
          "indexed": true,
          "internalType": "bytes32",
          "name": "previousAdminRole",
          "type": "bytes32"
        },
        {
          "indexed": true,
          "internalType": "bytes32",
          "name": "newAdminRole",
          "type": "bytes32"
        }
      ],
      "name": "RoleAdminChanged",
      "type": "event"
    },
    {
      "anonymous": false,
      "inputs": [
        {
          "indexed": true,
          "internalType": "bytes32",
          "name": "role",
          "type": "bytes32"
        },
        {
          "indexed": true,
          "internalType": "address",
          "name": "account",
          "type": "address"
        },
        {
          "indexed": true,
          "internalType": "address",
          "name": "sender",
          "type": "address"
        }
      ],
      "name": "RoleGranted",
      "type": "event"
    },
    {
      "anonymous": false,
      "inputs": [
        {
          "indexed": true,
          "internalType": "bytes32",
          "name": "role",
          "type": "bytes32"
        },
        {
          "indexed": true,
          "internalType": "address",
          "name": "account",
          "type": "address"
        },
        {
          "indexed": true,
          "internalType": "address",
          "name": "sender",
          "type": "address"
        }
      ],
      "name": "RoleRevoked",
      "type": "event"
    },
    {
      "anonymous": false,
      "inputs": [
        {
          "indexed": true,
          "internalType": "uint256",
          "name": "_lsrMinBalance",
          "type": "uint256"
        }
      ],
      "name": "SetLsrMinBalance",
      "type": "event"
    },
    {
      "anonymous": false,
      "inputs": [
        {
          "indexed": true,
          "internalType": "uint256",
          "name": "_swapFee",
          "type": "uint256"
        }
      ],
      "name": "SetSwapFee",
      "type": "event"
    },
    {
      "anonymous": false,
      "inputs": [
        {
          "indexed": true,
          "internalType": "address",
          "name": "_token",
          "type": "address"
        },
        {
          "indexed": false,
          "internalType": "uint256",
          "name": "_totalBalance",
          "type": "uint256"
        }
      ],
      "name": "WithdrawFees",
      "type": "event"
    },
    {
      "inputs": [],
      "name": "ADMIN_ROLE",
      "outputs": [
        {
          "internalType": "bytes32",
          "name": "",
          "type": "bytes32"
        }
      ],
      "stateMutability": "view",
      "type": "function"
    },
    {
      "inputs": [],
      "name": "DEFAULT_ADMIN_ROLE",
      "outputs": [
        {
          "internalType": "bytes32",
          "name": "",
          "type": "bytes32"
        }
      ],
      "stateMutability": "view",
      "type": "function"
    },
    {
      "inputs": [],
      "name": "OWNER_ROLE",
      "outputs": [
        {
          "internalType": "bytes32",
          "name": "",
          "type": "bytes32"
        }
      ],
      "stateMutability": "view",
      "type": "function"
    },
    {
      "inputs": [],
      "name": "WETH",
      "outputs": [
        {
          "internalType": "address",
          "name": "",
          "type": "address"
        }
      ],
      "stateMutability": "view",
      "type": "function"
    },
    {
      "inputs": [
        {
          "internalType": "address",
          "name": "_adminAddress",
          "type": "address"
        }
      ],
      "name": "addAdminAddress",
      "outputs": [],
      "stateMutability": "nonpayable",
      "type": "function"
    },
    {
      "inputs": [
        {
          "internalType": "address",
          "name": "tokenA",
          "type": "address"
        },
        {
          "internalType": "address",
          "name": "tokenB",
          "type": "address"
        },
        {
          "internalType": "uint256",
          "name": "amountADesired",
          "type": "uint256"
        },
        {
          "internalType": "uint256",
          "name": "amountBDesired",
          "type": "uint256"
        },
        {
          "internalType": "uint256",
          "name": "amountAMin",
          "type": "uint256"
        },
        {
          "internalType": "uint256",
          "name": "amountBMin",
          "type": "uint256"
        },
        {
          "internalType": "address",
          "name": "to",
          "type": "address"
        },
        {
          "internalType": "uint256",
          "name": "deadline",
          "type": "uint256"
        }
      ],
      "name": "addLiquidity",
      "outputs": [
        {
          "internalType": "uint256",
          "name": "amountA",
          "type": "uint256"
        },
        {
          "internalType": "uint256",
          "name": "amountB",
          "type": "uint256"
        },
        {
          "internalType": "uint256",
          "name": "liquidity",
          "type": "uint256"
        }
      ],
      "stateMutability": "nonpayable",
      "type": "function"
    },
    {
      "inputs": [],
      "name": "factory",
      "outputs": [
        {
          "internalType": "address",
          "name": "",
          "type": "address"
        }
      ],
      "stateMutability": "view",
      "type": "function"
    },
    {
      "inputs": [
        {
          "internalType": "uint256",
          "name": "amountOut",
          "type": "uint256"
        },
        {
          "internalType": "uint256",
          "name": "reserveIn",
          "type": "uint256"
        },
        {
          "internalType": "uint256",
          "name": "reserveOut",
          "type": "uint256"
        }
      ],
      "name": "getAmountIn",
      "outputs": [
        {
          "internalType": "uint256",
          "name": "amountIn",
          "type": "uint256"
        }
      ],
      "stateMutability": "pure",
      "type": "function"
    },
    {
      "inputs": [
        {
          "internalType": "uint256",
          "name": "amountIn",
          "type": "uint256"
        },
        {
          "internalType": "uint256",
          "name": "reserveIn",
          "type": "uint256"
        },
        {
          "internalType": "uint256",
          "name": "reserveOut",
          "type": "uint256"
        }
      ],
      "name": "getAmountOut",
      "outputs": [
        {
          "internalType": "uint256",
          "name": "amountOut",
          "type": "uint256"
        }
      ],
      "stateMutability": "pure",
      "type": "function"
    },
    {
      "inputs": [
        {
          "internalType": "uint256",
          "name": "amountOut",
          "type": "uint256"
        },
        {
          "internalType": "address[]",
          "name": "path",
          "type": "address[]"
        }
      ],
      "name": "getAmountsIn",
      "outputs": [
        {
          "internalType": "uint256[]",
          "name": "amounts",
          "type": "uint256[]"
        }
      ],
      "stateMutability": "view",
      "type": "function"
    },
    {
      "inputs": [
        {
          "internalType": "uint256",
          "name": "amountIn",
          "type": "uint256"
        },
        {
          "internalType": "address[]",
          "name": "path",
          "type": "address[]"
        }
      ],
      "name": "getAmountsOut",
      "outputs": [
        {
          "internalType": "uint256[]",
          "name": "amounts",
          "type": "uint256[]"
        }
      ],
      "stateMutability": "view",
      "type": "function"
    },
    {
      "inputs": [],
      "name": "getLsrMinBalance",
      "outputs": [
        {
          "internalType": "uint256",
          "name": "",
          "type": "uint256"
        }
      ],
      "stateMutability": "view",
      "type": "function"
    },
    {
      "inputs": [],
      "name": "getOwnerAddress",
      "outputs": [
        {
          "internalType": "address",
          "name": "",
          "type": "address"
        }
      ],
      "stateMutability": "view",
      "type": "function"
    },
    {
      "inputs": [
        {
          "internalType": "bytes32",
          "name": "role",
          "type": "bytes32"
        }
      ],
      "name": "getRoleAdmin",
      "outputs": [
        {
          "internalType": "bytes32",
          "name": "",
          "type": "bytes32"
        }
      ],
      "stateMutability": "view",
      "type": "function"
    },
    {
      "inputs": [
        {
          "internalType": "bytes32",
          "name": "role",
          "type": "bytes32"
        },
        {
          "internalType": "uint256",
          "name": "index",
          "type": "uint256"
        }
      ],
      "name": "getRoleMember",
      "outputs": [
        {
          "internalType": "address",
          "name": "",
          "type": "address"
        }
      ],
      "stateMutability": "view",
      "type": "function"
    },
    {
      "inputs": [
        {
          "internalType": "bytes32",
          "name": "role",
          "type": "bytes32"
        }
      ],
      "name": "getRoleMemberCount",
      "outputs": [
        {
          "internalType": "uint256",
          "name": "",
          "type": "uint256"
        }
      ],
      "stateMutability": "view",
      "type": "function"
    },
    {
      "inputs": [],
      "name": "getSwapFee",
      "outputs": [
        {
          "internalType": "uint256",
          "name": "",
          "type": "uint256"
        }
      ],
      "stateMutability": "view",
      "type": "function"
    },
    {
      "inputs": [
        {
          "internalType": "bytes32",
          "name": "role",
          "type": "bytes32"
        },
        {
          "internalType": "address",
          "name": "account",
          "type": "address"
        }
      ],
      "name": "grantRole",
      "outputs": [],
      "stateMutability": "nonpayable",
      "type": "function"
    },
    {
      "inputs": [
        {
          "internalType": "bytes32",
          "name": "role",
          "type": "bytes32"
        },
        {
          "internalType": "address",
          "name": "account",
          "type": "address"
        }
      ],
      "name": "hasRole",
      "outputs": [
        {
          "internalType": "bool",
          "name": "",
          "type": "bool"
        }
      ],
      "stateMutability": "view",
      "type": "function"
    },
    {
      "inputs": [
        {
          "internalType": "address",
          "name": "",
          "type": "address"
        }
      ],
      "name": "isAdmin",
      "outputs": [
        {
          "internalType": "bool",
          "name": "",
          "type": "bool"
        }
      ],
      "stateMutability": "view",
      "type": "function"
    },
    {
      "inputs": [
        {
          "internalType": "uint256",
          "name": "amountA",
          "type": "uint256"
        },
        {
          "internalType": "uint256",
          "name": "reserveA",
          "type": "uint256"
        },
        {
          "internalType": "uint256",
          "name": "reserveB",
          "type": "uint256"
        }
      ],
      "name": "quote",
      "outputs": [
        {
          "internalType": "uint256",
          "name": "amountB",
          "type": "uint256"
        }
      ],
      "stateMutability": "pure",
      "type": "function"
    },
    {
      "inputs": [
        {
          "internalType": "address",
          "name": "tokenA",
          "type": "address"
        },
        {
          "internalType": "address",
          "name": "tokenB",
          "type": "address"
        },
        {
          "internalType": "uint256",
          "name": "liquidity",
          "type": "uint256"
        },
        {
          "internalType": "uint256",
          "name": "amountAMin",
          "type": "uint256"
        },
        {
          "internalType": "uint256",
          "name": "amountBMin",
          "type": "uint256"
        },
        {
          "internalType": "address",
          "name": "to",
          "type": "address"
        },
        {
          "internalType": "uint256",
          "name": "deadline",
          "type": "uint256"
        }
      ],
      "name": "removeLiquidity",
      "outputs": [
        {
          "internalType": "uint256",
          "name": "amountA",
          "type": "uint256"
        },
        {
          "internalType": "uint256",
          "name": "amountB",
          "type": "uint256"
        }
      ],
      "stateMutability": "nonpayable",
      "type": "function"
    },
    {
      "inputs": [
        {
          "internalType": "address",
          "name": "tokenA",
          "type": "address"
        },
        {
          "internalType": "address",
          "name": "tokenB",
          "type": "address"
        },
        {
          "internalType": "uint256",
          "name": "liquidity",
          "type": "uint256"
        },
        {
          "internalType": "uint256",
          "name": "amountAMin",
          "type": "uint256"
        },
        {
          "internalType": "uint256",
          "name": "amountBMin",
          "type": "uint256"
        },
        {
          "internalType": "address",
          "name": "to",
          "type": "address"
        },
        {
          "internalType": "uint256",
          "name": "deadline",
          "type": "uint256"
        },
        {
          "internalType": "bool",
          "name": "approveMax",
          "type": "bool"
        },
        {
          "internalType": "uint8",
          "name": "v",
          "type": "uint8"
        },
        {
          "internalType": "bytes32",
          "name": "r",
          "type": "bytes32"
        },
        {
          "internalType": "bytes32",
          "name": "s",
          "type": "bytes32"
        }
      ],
      "name": "removeLiquidityWithPermit",
      "outputs": [
        {
          "internalType": "uint256",
          "name": "amountA",
          "type": "uint256"
        },
        {
          "internalType": "uint256",
          "name": "amountB",
          "type": "uint256"
        }
      ],
      "stateMutability": "nonpayable",
      "type": "function"
    },
    {
      "inputs": [
        {
          "internalType": "bytes32",
          "name": "role",
          "type": "bytes32"
        },
        {
          "internalType": "address",
          "name": "account",
          "type": "address"
        }
      ],
      "name": "renounceRole",
      "outputs": [],
      "stateMutability": "nonpayable",
      "type": "function"
    },
    {
      "inputs": [
        {
          "internalType": "address",
          "name": "_adminAddress",
          "type": "address"
        }
      ],
      "name": "revokeAdminAddress",
      "outputs": [],
      "stateMutability": "nonpayable",
      "type": "function"
    },
    {
      "inputs": [
        {
          "internalType": "bytes32",
          "name": "role",
          "type": "bytes32"
        },
        {
          "internalType": "address",
          "name": "account",
          "type": "address"
        }
      ],
      "name": "revokeRole",
      "outputs": [],
      "stateMutability": "nonpayable",
      "type": "function"
    },
    {
      "inputs": [
        {
          "internalType": "uint256",
          "name": "_lsrMinBalance",
          "type": "uint256"
        }
      ],
      "name": "setLsrMinBalance",
      "outputs": [],
      "stateMutability": "nonpayable",
      "type": "function"
    },
    {
      "inputs": [
        {
          "internalType": "uint256",
          "name": "_swapFee",
          "type": "uint256"
        }
      ],
      "name": "setSwapFee",
      "outputs": [],
      "stateMutability": "nonpayable",
      "type": "function"
    },
    {
      "inputs": [
        {
          "internalType": "uint256",
          "name": "amountIn",
          "type": "uint256"
        },
        {
          "internalType": "uint256",
          "name": "amountOutMin",
          "type": "uint256"
        },
        {
          "internalType": "address[]",
          "name": "path",
          "type": "address[]"
        },
        {
          "internalType": "address",
          "name": "to",
          "type": "address"
        },
        {
          "internalType": "uint256",
          "name": "deadline",
          "type": "uint256"
        }
      ],
      "name": "swapExactTokensForTokens",
      "outputs": [
        {
          "internalType": "uint256[]",
          "name": "amounts",
          "type": "uint256[]"
        }
      ],
      "stateMutability": "payable",
      "type": "function"
    },
    {
      "inputs": [
        {
          "internalType": "uint256",
          "name": "amountIn",
          "type": "uint256"
        },
        {
          "internalType": "uint256",
          "name": "amountOutMin",
          "type": "uint256"
        },
        {
          "internalType": "address[]",
          "name": "path",
          "type": "address[]"
        },
        {
          "internalType": "address",
          "name": "to",
          "type": "address"
        },
        {
          "internalType": "uint256",
          "name": "deadline",
          "type": "uint256"
        }
      ],
      "name": "swapExactTokensForTokensSupportingFeeOnTransferTokens",
      "outputs": [],
      "stateMutability": "payable",
      "type": "function"
    },
    {
      "inputs": [
        {
          "internalType": "uint256",
          "name": "amountOut",
          "type": "uint256"
        },
        {
          "internalType": "uint256",
          "name": "amountInMax",
          "type": "uint256"
        },
        {
          "internalType": "address[]",
          "name": "path",
          "type": "address[]"
        },
        {
          "internalType": "address",
          "name": "to",
          "type": "address"
        },
        {
          "internalType": "uint256",
          "name": "deadline",
          "type": "uint256"
        }
      ],
      "name": "swapTokensForExactTokens",
      "outputs": [
        {
          "internalType": "uint256[]",
          "name": "amounts",
          "type": "uint256[]"
        }
      ],
      "stateMutability": "nonpayable",
      "type": "function"
    },
    {
      "inputs": [
        {
          "internalType": "address",
          "name": "_token",
          "type": "address"
        }
      ],
      "name": "withdrawFees",
      "outputs": [],
      "stateMutability": "nonpayable",
      "type": "function"
    },
    {
      "stateMutability": "payable",
      "type": "receive"
    }
  ],
  "bytecode": "0x60c0604052600a60055560646006553480156200001b57600080fd5b506040516200560e3803806200560e833981810160405260608110156200004157600080fd5b810190808051906020019092919080519060200190929190805190602001909291905050508273ffffffffffffffffffffffffffffffffffffffff1660808173ffffffffffffffffffffffffffffffffffffffff1660601b815250508173ffffffffffffffffffffffffffffffffffffffff1660a08173ffffffffffffffffffffffffffffffffffffffff1660601b8152505080600760006101000a81548173ffffffffffffffffffffffffffffffffffffffff021916908373ffffffffffffffffffffffffffffffffffffffff16021790555033600460006101000a81548173ffffffffffffffffffffffffffffffffffffffff021916908373ffffffffffffffffffffffffffffffffffffffff160217905550620001ae60405160200180807f4f574e455200000000000000000000000000000000000000000000000000000081525060050190506040516020818303038152906040528051906020012033620002ad60201b60201c565b6200020660405160200180807f41444d494e00000000000000000000000000000000000000000000000000000081525060050190506040516020818303038152906040528051906020012033620002ad60201b60201c565b620002a460405160200180807f41444d494e00000000000000000000000000000000000000000000000000000081525060050190506040516020818303038152906040528051906020012060405160200180807f4f574e4552000000000000000000000000000000000000000000000000000000815250600501905060405160208183030381529060405280519060200120620002c360201b60201c565b505050620005c5565b620002bf82826200032660201b60201c565b5050565b6000620002d6836200036e60201b60201c565b905081600080858152602001908152602001600020600101819055508181847fbd79b86ffe0ab8e8776151514217cd7cacd52c909f66475c3af44e129f0b00ff60405160405180910390a4505050565b6200033d82826200038d60201b620047ab1760201c565b6200036981600160008581526020019081526020016000206200047e60201b6200488b1790919060201c565b505050565b6000806000838152602001908152602001600020600101549050919050565b6200039f8282620004b660201b60201c565b6200047a57600160008084815260200190815260200160002060000160008373ffffffffffffffffffffffffffffffffffffffff1673ffffffffffffffffffffffffffffffffffffffff16815260200190815260200160002060006101000a81548160ff0219169083151502179055506200041f6200052060201b60201c565b73ffffffffffffffffffffffffffffffffffffffff168173ffffffffffffffffffffffffffffffffffffffff16837f2f8788117e7eff1d82e926ec794901d17c78024a50270940304540a733656f0d60405160405180910390a45b5050565b6000620004ae836000018373ffffffffffffffffffffffffffffffffffffffff1660001b6200052860201b60201c565b905092915050565b600080600084815260200190815260200160002060000160008373ffffffffffffffffffffffffffffffffffffffff1673ffffffffffffffffffffffffffffffffffffffff16815260200190815260200160002060009054906101000a900460ff16905092915050565b600033905090565b60006200053c8383620005a260201b60201c565b620005975782600001829080600181540180825580915050600190039060005260206000200160009091909190915055826000018054905083600101600084815260200190815260200160002081905550600190506200059c565b600090505b92915050565b600080836001016000848152602001908152602001600020541415905092915050565b60805160601c60a05160601c614fc06200064e600039806101ed52806125e3525080611513528061154b52806119365280611bc05280611ccc5280611f5a5280612345528061244e528061269c528061299e52806129eb5280612b7a52806135035280613547528061373c52806139a35280613fc352806140eb52806142015250614fc06000f3fe6080604052600436106101e65760003560e01c80638803dbee11610102578063c45a015511610095578063d547741f11610064578063d547741f14610fe8578063d7a1660414611043578063e58378bb14611094578063e8e33700146110bf57610242565b8063c45a015514610df3578063ca15c87314610e4a578063d06ca61f14610e99578063d4cadf6814610fbd57610242565b8063a47d7fbf116100d1578063a47d7fbf14610c3a578063ad5c464814610c65578063ad615dec14610cbc578063baa2abde14610d1f57610242565b80638803dbee146109fe5780639010d07c14610b1757806391d1485414610b9c578063a217fddf14610c0f57610242565b80632f2ff15d1161017a57806339c7ddcc1161014957806339c7ddcc1461087e5780635c11d795146108b957806375b238fc1461097057806385f8c2591461099b57610242565b80632f2ff15d1461068157806334e19907146106dc57806336568abe1461071757806338ed17391461077257610242565b80631f00ca74116101b65780631f00ca74146103a35780632195995c146104c7578063248a9ca3146105c957806324d7806c1461061857610242565b80624fba0014610247578063054d50d4146102985780630c4f65bd146102fb578063164e68de1461035257610242565b36610242577f000000000000000000000000000000000000000000000000000000000000000073ffffffffffffffffffffffffffffffffffffffff163373ffffffffffffffffffffffffffffffffffffffff161461024057fe5b005b600080fd5b34801561025357600080fd5b506102966004803603602081101561026a57600080fd5b81019080803573ffffffffffffffffffffffffffffffffffffffff1690602001909291905050506111a5565b005b3480156102a457600080fd5b506102e5600480360360608110156102bb57600080fd5b81019080803590602001909291908035906020019092919080359060200190929190505050611239565b6040518082815260200191505060405180910390f35b34801561030757600080fd5b5061031061124f565b604051808273ffffffffffffffffffffffffffffffffffffffff1673ffffffffffffffffffffffffffffffffffffffff16815260200191505060405180910390f35b34801561035e57600080fd5b506103a16004803603602081101561037557600080fd5b81019080803573ffffffffffffffffffffffffffffffffffffffff169060200190929190505050611279565b005b3480156103af57600080fd5b50610470600480360360408110156103c657600080fd5b8101908080359060200190929190803590602001906401000000008111156103ed57600080fd5b8201836020820111156103ff57600080fd5b8035906020019184602083028401116401000000008311171561042157600080fd5b919080806020026020016040519081016040528093929190818152602001838360200280828437600081840152601f19601f82011690508083019250505050505050919291929050505061150c565b6040518080602001828103825283818151815260200191508051906020019060200280838360005b838110156104b3578082015181840152602081019050610498565b505050509050019250505060405180910390f35b3480156104d357600080fd5b506105ac60048036036101608110156104eb57600080fd5b81019080803573ffffffffffffffffffffffffffffffffffffffff169060200190929190803573ffffffffffffffffffffffffffffffffffffffff169060200190929190803590602001909291908035906020019092919080359060200190929190803573ffffffffffffffffffffffffffffffffffffffff16906020019092919080359060200190929190803515159060200190929190803560ff1690602001909291908035906020019092919080359060200190929190505050611541565b604051808381526020018281526020019250505060405180910390f35b3480156105d557600080fd5b50610602600480360360208110156105ec57600080fd5b81019080803590602001909291905050506116c6565b6040518082815260200191505060405180910390f35b34801561062457600080fd5b506106676004803603602081101561063b57600080fd5b81019080803573ffffffffffffffffffffffffffffffffffffffff1690602001909291905050506116e5565b604051808215151515815260200191505060405180910390f35b34801561068d57600080fd5b506106da600480360360408110156106a457600080fd5b8101908080359060200190929190803573ffffffffffffffffffffffffffffffffffffffff169060200190929190505050611705565b005b3480156106e857600080fd5b50610715600480360360208110156106ff57600080fd5b8101908080359060200190929190505050611726565b005b34801561072357600080fd5b506107706004803603604081101561073a57600080fd5b8101908080359060200190929190803573ffffffffffffffffffffffffffffffffffffffff16906020019092919050505061181f565b005b610827600480360360a081101561078857600080fd5b810190808035906020019092919080359060200190929190803590602001906401000000008111156107b957600080fd5b8201836020820111156107cb57600080fd5b803590602001918460208302840111640100000000831117156107ed57600080fd5b9091929391929390803573ffffffffffffffffffffffffffffffffffffffff169060200190929190803590602001909291905050506118b8565b6040518080602001828103825283818151815260200191508051906020019060200280838360005b8381101561086a57808201518184015260208101905061084f565b505050509050019250505060405180910390f35b34801561088a57600080fd5b506108b7600480360360208110156108a157600080fd5b8101908080359060200190929190505050611db7565b005b61096e600480360360a08110156108cf57600080fd5b8101908080359060200190929190803590602001909291908035906020019064010000000081111561090057600080fd5b82018360208201111561091257600080fd5b8035906020019184602083028401116401000000008311171561093457600080fd5b9091929391929390803573ffffffffffffffffffffffffffffffffffffffff16906020019092919080359060200190929190505050611eb0565b005b34801561097c57600080fd5b50610985612267565b6040518082815260200191505060405180910390f35b3480156109a757600080fd5b506109e8600480360360608110156109be57600080fd5b810190808035906020019092919080359060200190929190803590602001909291905050506122b1565b6040518082815260200191505060405180910390f35b348015610a0a57600080fd5b50610ac0600480360360a0811015610a2157600080fd5b81019080803590602001909291908035906020019092919080359060200190640100000000811115610a5257600080fd5b820183602082011115610a6457600080fd5b80359060200191846020830284011164010000000083111715610a8657600080fd5b9091929391929390803573ffffffffffffffffffffffffffffffffffffffff169060200190929190803590602001909291905050506122c7565b6040518080602001828103825283818151815260200191508051906020019060200280838360005b83811015610b03578082015181840152602081019050610ae8565b505050509050019250505060405180910390f35b348015610b2357600080fd5b50610b5a60048036036040811015610b3a57600080fd5b810190808035906020019092919080359060200190929190505050612537565b604051808273ffffffffffffffffffffffffffffffffffffffff1673ffffffffffffffffffffffffffffffffffffffff16815260200191505060405180910390f35b348015610ba857600080fd5b50610bf560048036036040811015610bbf57600080fd5b8101908080359060200190929190803573ffffffffffffffffffffffffffffffffffffffff169060200190929190505050612566565b604051808215151515815260200191505060405180910390f35b348015610c1b57600080fd5b50610c246125d0565b6040518082815260200191505060405180910390f35b348015610c4657600080fd5b50610c4f6125d7565b6040518082815260200191505060405180910390f35b348015610c7157600080fd5b50610c7a6125e1565b604051808273ffffffffffffffffffffffffffffffffffffffff1673ffffffffffffffffffffffffffffffffffffffff16815260200191505060405180910390f35b348015610cc857600080fd5b50610d0960048036036060811015610cdf57600080fd5b81019080803590602001909291908035906020019092919080359060200190929190505050612605565b6040518082815260200191505060405180910390f35b348015610d2b57600080fd5b50610dd6600480360360e0811015610d4257600080fd5b81019080803573ffffffffffffffffffffffffffffffffffffffff169060200190929190803573ffffffffffffffffffffffffffffffffffffffff169060200190929190803590602001909291908035906020019092919080359060200190929190803573ffffffffffffffffffffffffffffffffffffffff1690602001909291908035906020019092919050505061261b565b604051808381526020018281526020019250505060405180910390f35b348015610dff57600080fd5b50610e0861299c565b604051808273ffffffffffffffffffffffffffffffffffffffff1673ffffffffffffffffffffffffffffffffffffffff16815260200191505060405180910390f35b348015610e5657600080fd5b50610e8360048036036020811015610e6d57600080fd5b81019080803590602001909291905050506129c0565b6040518082815260200191505060405180910390f35b348015610ea557600080fd5b50610f6660048036036040811015610ebc57600080fd5b810190808035906020019092919080359060200190640100000000811115610ee357600080fd5b820183602082011115610ef557600080fd5b80359060200191846020830284011164010000000083111715610f1757600080fd5b919080806020026020016040519081016040528093929190818152602001838360200280828437600081840152601f19601f8201169050808301925050505050505091929192905050506129e4565b6040518080602001828103825283818151815260200191508051906020019060200280838360005b83811015610fa9578082015181840152602081019050610f8e565b505050509050019250505060405180910390f35b348015610fc957600080fd5b50610fd2612a19565b6040518082815260200191505060405180910390f35b348015610ff457600080fd5b506110416004803603604081101561100b57600080fd5b8101908080359060200190929190803573ffffffffffffffffffffffffffffffffffffffff169060200190929190505050612a23565b005b34801561104f57600080fd5b506110926004803603602081101561106657600080fd5b81019080803573ffffffffffffffffffffffffffffffffffffffff169060200190929190505050612a44565b005b3480156110a057600080fd5b506110a9612a97565b6040518082815260200191505060405180910390f35b3480156110cb57600080fd5b5061118160048036036101008110156110e357600080fd5b81019080803573ffffffffffffffffffffffffffffffffffffffff169060200190929190803573ffffffffffffffffffffffffffffffffffffffff16906020019092919080359060200190929190803590602001909291908035906020019092919080359060200190929190803573ffffffffffffffffffffffffffffffffffffffff16906020019092919080359060200190929190505050612ae1565b60405180848152602001838152602001828152602001935050505060405180910390f35b6111f560405160200180807f41444d494e00000000000000000000000000000000000000000000000000000081525060050190506040516020818303038152906040528051906020012082611705565b80600360006101000a81548173ffffffffffffffffffffffffffffffffffffffff021916908373ffffffffffffffffffffffffffffffffffffffff16021790555050565b6000611246848484612c86565b90509392505050565b6000600460009054906101000a900473ffffffffffffffffffffffffffffffffffffffff16905090565b6112c960405160200180807f41444d494e00000000000000000000000000000000000000000000000000000081525060050190506040516020818303038152906040528051906020012033612566565b61133b576040517f08c379a00000000000000000000000000000000000000000000000000000000081526004018080602001828103825260198152602001807f50726f6869626974656420666f72206e6f6e2061646d696e730000000000000081525060200191505060405180910390fd5b60008173ffffffffffffffffffffffffffffffffffffffff166370a08231306040518263ffffffff1660e01b8152600401808273ffffffffffffffffffffffffffffffffffffffff1673ffffffffffffffffffffffffffffffffffffffff16815260200191505060206040518083038186803b1580156113ba57600080fd5b505afa1580156113ce573d6000803e3d6000fd5b505050506040513d60208110156113e457600080fd5b810190808051906020019092919050505090508173ffffffffffffffffffffffffffffffffffffffff1663a9059cbb33836040518363ffffffff1660e01b8152600401808373ffffffffffffffffffffffffffffffffffffffff1673ffffffffffffffffffffffffffffffffffffffff16815260200182815260200192505050602060405180830381600087803b15801561147e57600080fd5b505af1158015611492573d6000803e3d6000fd5b505050506040513d60208110156114a857600080fd5b8101908080519060200190929190505050508173ffffffffffffffffffffffffffffffffffffffff167f9bba815921f12cb7b1408e14b5ade745234397d39623ae5e7c82d693cb45815f826040518082815260200191505060405180910390a25050565b60606115397f00000000000000000000000000000000000000000000000000000000000000008484612db6565b905092915050565b60008060006115717f00000000000000000000000000000000000000000000000000000000000000008f8f612f36565b9050600087611580578c6115a2565b7fffffffffffffffffffffffffffffffffffffffffffffffffffffffffffffffff5b90508173ffffffffffffffffffffffffffffffffffffffff1663d505accf3330848d8c8c8c6040518863ffffffff1660e01b8152600401808873ffffffffffffffffffffffffffffffffffffffff1673ffffffffffffffffffffffffffffffffffffffff1681526020018773ffffffffffffffffffffffffffffffffffffffff1673ffffffffffffffffffffffffffffffffffffffff1681526020018681526020018581526020018460ff1660ff168152602001838152602001828152602001975050505050505050600060405180830381600087803b15801561168557600080fd5b505af1158015611699573d6000803e3d6000fd5b505050506116ac8f8f8f8f8f8f8f61261b565b809450819550505050509b509b9950505050505050505050565b6000806000838152602001908152602001600020600101549050919050565b60026020528060005260406000206000915054906101000a900460ff1681565b61170e826116c6565b6117178161302d565b6117218383613041565b505050565b61177660405160200180807f41444d494e00000000000000000000000000000000000000000000000000000081525060050190506040516020818303038152906040528051906020012033612566565b6117e8576040517f08c379a00000000000000000000000000000000000000000000000000000000081526004018080602001828103825260198152602001807f50726f6869626974656420666f72206e6f6e2061646d696e730000000000000081525060200191505060405180910390fd5b80600581905550807fcda74150def0ede554aff5f677be9df0e226fddff9bd9ceddf732b9673b1c92d60405160405180910390a250565b611827613075565b73ffffffffffffffffffffffffffffffffffffffff168173ffffffffffffffffffffffffffffffffffffffff16146118aa576040517f08c379a000000000000000000000000000000000000000000000000000000000815260040180806020018281038252602f815260200180614f5c602f913960400191505060405180910390fd5b6118b4828261307d565b5050565b60608142811015611931576040517f08c379a00000000000000000000000000000000000000000000000000000000081526004018080602001828103825260168152602001807f50616e63616b65526f757465723a20455850495245440000000000000000000081525060200191505060405180910390fd5b61199d7f000000000000000000000000000000000000000000000000000000000000000089888880806020026020016040519081016040528093929190818152602001838360200280828437600081840152601f19601f820116905080830192505050505050506130b1565b91506000600760009054906101000a900473ffffffffffffffffffffffffffffffffffffffff1673ffffffffffffffffffffffffffffffffffffffff166370a08231336040518263ffffffff1660e01b8152600401808273ffffffffffffffffffffffffffffffffffffffff1673ffffffffffffffffffffffffffffffffffffffff16815260200191505060206040518083038186803b158015611a4057600080fd5b505afa158015611a54573d6000803e3d6000fd5b505050506040513d6020811015611a6a57600080fd5b8101908080519060200190929190505050905060006006548210611a915760009050611b46565b6127106005548b0281611aa057fe5b049050611ad888886000818110611ab357fe5b9050602002013573ffffffffffffffffffffffffffffffffffffffff16333084613229565b8088886000818110611ae657fe5b9050602002013573ffffffffffffffffffffffffffffffffffffffff1673ffffffffffffffffffffffffffffffffffffffff167f55bb3cade9d43b798a4fe5ffdd05024b2d7870df53920673bfc7e68047cd0ab160405160405180910390a35b808a0399508884600186510381518110611b5c57fe5b60200260200101511015611bbb576040517f08c379a0000000000000000000000000000000000000000000000000000000008152600401808060200182810382526029815260200180614e5a6029913960400191505060405180910390fd5b611c277f00000000000000000000000000000000000000000000000000000000000000008b8a8a80806020026020016040519081016040528093929190818152602001838360200280828437600081840152601f19601f820116905080830192505050505050506130b1565b93508884600186510381518110611c3a57fe5b60200260200101511015611c99576040517f08c379a0000000000000000000000000000000000000000000000000000000008152600401808060200182810382526029815260200180614e5a6029913960400191505060405180910390fd5b611d5e88886000818110611ca957fe5b9050602002013573ffffffffffffffffffffffffffffffffffffffff1633611d447f00000000000000000000000000000000000000000000000000000000000000008c8c6000818110611cf857fe5b9050602002013573ffffffffffffffffffffffffffffffffffffffff168d8d6001818110611d2257fe5b9050602002013573ffffffffffffffffffffffffffffffffffffffff16612f36565b87600081518110611d5157fe5b6020026020010151613229565b611daa84898980806020026020016040519081016040528093929190818152602001838360200280828437600081840152601f19601f820116905080830192505050505050508861343a565b5050509695505050505050565b611e0760405160200180807f41444d494e00000000000000000000000000000000000000000000000000000081525060050190506040516020818303038152906040528051906020012033612566565b611e79576040517f08c379a00000000000000000000000000000000000000000000000000000000081526004018080602001828103825260198152602001807f50726f6869626974656420666f72206e6f6e2061646d696e730000000000000081525060200191505060405180910390fd5b80600681905550807f7b1ffeb7108f18e57b8afd7a064966095b5c7cef1212c4e31d5cf6fee2cb1aa260405160405180910390a250565b8042811015611f27576040517f08c379a00000000000000000000000000000000000000000000000000000000081526004018080602001828103825260168152602001807f50616e63616b65526f757465723a20455850495245440000000000000000000081525060200191505060405180910390fd5b611fd885856000818110611f3757fe5b9050602002013573ffffffffffffffffffffffffffffffffffffffff1633611fd27f000000000000000000000000000000000000000000000000000000000000000089896000818110611f8657fe5b9050602002013573ffffffffffffffffffffffffffffffffffffffff168a8a6001818110611fb057fe5b9050602002013573ffffffffffffffffffffffffffffffffffffffff16612f36565b8a613229565b6000858560018888905003818110611fec57fe5b9050602002013573ffffffffffffffffffffffffffffffffffffffff1673ffffffffffffffffffffffffffffffffffffffff166370a08231856040518263ffffffff1660e01b8152600401808273ffffffffffffffffffffffffffffffffffffffff1673ffffffffffffffffffffffffffffffffffffffff16815260200191505060206040518083038186803b15801561208557600080fd5b505afa158015612099573d6000803e3d6000fd5b505050506040513d60208110156120af57600080fd5b8101908080519060200190929190505050905061210d868680806020026020016040519081016040528093929190818152602001838360200280828437600081840152601f19601f82011690508083019250505050505050856136e5565b8661220682888860018b8b90500381811061212457fe5b9050602002013573ffffffffffffffffffffffffffffffffffffffff1673ffffffffffffffffffffffffffffffffffffffff166370a08231886040518263ffffffff1660e01b8152600401808273ffffffffffffffffffffffffffffffffffffffff1673ffffffffffffffffffffffffffffffffffffffff16815260200191505060206040518083038186803b1580156121bd57600080fd5b505afa1580156121d1573d6000803e3d6000fd5b505050506040513d60208110156121e757600080fd5b8101908080519060200190929190505050613b5c90919063ffffffff16565b101561225d576040517f08c379a0000000000000000000000000000000000000000000000000000000008152600401808060200182810382526029815260200180614e5a6029913960400191505060405180910390fd5b5050505050505050565b60405160200180807f41444d494e00000000000000000000000000000000000000000000000000000081525060050190506040516020818303038152906040528051906020012081565b60006122be848484613bdf565b90509392505050565b60608142811015612340576040517f08c379a00000000000000000000000000000000000000000000000000000000081526004018080602001828103825260168152602001807f50616e63616b65526f757465723a20455850495245440000000000000000000081525060200191505060405180910390fd5b6123ac7f000000000000000000000000000000000000000000000000000000000000000089888880806020026020016040519081016040528093929190818152602001838360200280828437600081840152601f19601f82011690508083019250505050505050612db6565b915086826000815181106123bc57fe5b6020026020010151111561241b576040517f08c379a0000000000000000000000000000000000000000000000000000000008152600401808060200182810382526025815260200180614eed6025913960400191505060405180910390fd5b6124e08686600081811061242b57fe5b9050602002013573ffffffffffffffffffffffffffffffffffffffff16336124c67f00000000000000000000000000000000000000000000000000000000000000008a8a600081811061247a57fe5b9050602002013573ffffffffffffffffffffffffffffffffffffffff168b8b60018181106124a457fe5b9050602002013573ffffffffffffffffffffffffffffffffffffffff16612f36565b856000815181106124d357fe5b6020026020010151613229565b61252c82878780806020026020016040519081016040528093929190818152602001838360200280828437600081840152601f19601f820116905080830192505050505050508661343a565b509695505050505050565b600061255e8260016000868152602001908152602001600020613d1c90919063ffffffff16565b905092915050565b600080600084815260200190815260200160002060000160008373ffffffffffffffffffffffffffffffffffffffff1673ffffffffffffffffffffffffffffffffffffffff16815260200190815260200160002060009054906101000a900460ff16905092915050565b6000801b81565b6000600654905090565b7f000000000000000000000000000000000000000000000000000000000000000081565b6000612612848484613d36565b90509392505050565b6000808242811015612695576040517f08c379a00000000000000000000000000000000000000000000000000000000081526004018080602001828103825260168152602001807f50616e63616b65526f757465723a20455850495245440000000000000000000081525060200191505060405180910390fd5b60006126c27f00000000000000000000000000000000000000000000000000000000000000008c8c612f36565b90508073ffffffffffffffffffffffffffffffffffffffff166323b872dd33838c6040518463ffffffff1660e01b8152600401808473ffffffffffffffffffffffffffffffffffffffff1673ffffffffffffffffffffffffffffffffffffffff1681526020018373ffffffffffffffffffffffffffffffffffffffff1673ffffffffffffffffffffffffffffffffffffffff1681526020018281526020019350505050602060405180830381600087803b15801561277f57600080fd5b505af1158015612793573d6000803e3d6000fd5b505050506040513d60208110156127a957600080fd5b8101908080519060200190929190505050506000808273ffffffffffffffffffffffffffffffffffffffff166389afcb44896040518263ffffffff1660e01b8152600401808273ffffffffffffffffffffffffffffffffffffffff1673ffffffffffffffffffffffffffffffffffffffff1681526020019150506040805180830381600087803b15801561283c57600080fd5b505af1158015612850573d6000803e3d6000fd5b505050506040513d604081101561286657600080fd5b8101908080519060200190929190805190602001909291905050509150915060006128918e8e613e1a565b5090508073ffffffffffffffffffffffffffffffffffffffff168e73ffffffffffffffffffffffffffffffffffffffff16146128ce5781836128d1565b82825b80975081985050508a871015612932576040517f08c379a0000000000000000000000000000000000000000000000000000000008152600401808060200182810382526024815260200180614ea66024913960400191505060405180910390fd5b8986101561298b576040517f08c379a0000000000000000000000000000000000000000000000000000000008152600401808060200182810382526024815260200180614f386024913960400191505060405180910390fd5b505050505097509795505050505050565b7f000000000000000000000000000000000000000000000000000000000000000081565b60006129dd60016000848152602001908152602001600020613f91565b9050919050565b6060612a117f000000000000000000000000000000000000000000000000000000000000000084846130b1565b905092915050565b6000600554905090565b612a2c826116c6565b612a358161302d565b612a3f838361307d565b505050565b612a9460405160200180807f41444d494e00000000000000000000000000000000000000000000000000000081525060050190506040516020818303038152906040528051906020012082612a23565b50565b60405160200180807f4f574e455200000000000000000000000000000000000000000000000000000081525060050190506040516020818303038152906040528051906020012081565b60008060008342811015612b5d576040517f08c379a00000000000000000000000000000000000000000000000000000000081526004018080602001828103825260168152602001807f50616e63616b65526f757465723a20455850495245440000000000000000000081525060200191505060405180910390fd5b612b6b8c8c8c8c8c8c613fa6565b80945081955050506000612ba07f00000000000000000000000000000000000000000000000000000000000000008e8e612f36565b9050612bae8d338388613229565b612bba8c338387613229565b8073ffffffffffffffffffffffffffffffffffffffff16636a627842886040518263ffffffff1660e01b8152600401808273ffffffffffffffffffffffffffffffffffffffff1673ffffffffffffffffffffffffffffffffffffffff168152602001915050602060405180830381600087803b158015612c3957600080fd5b505af1158015612c4d573d6000803e3d6000fd5b505050506040513d6020811015612c6357600080fd5b810190808051906020019092919050505092505050985098509895505050505050565b6000808411612ce0576040517f08c379a0000000000000000000000000000000000000000000000000000000008152600401808060200182810382526029815260200180614dd66029913960400191505060405180910390fd5b600083118015612cf05750600082115b612d45576040517f08c379a0000000000000000000000000000000000000000000000000000000008152600401808060200182810382526026815260200180614f126026913960400191505060405180910390fd5b6000612d5c6126f78661438890919063ffffffff16565b90506000612d73848361438890919063ffffffff16565b90506000612d9e83612d906127108961438890919063ffffffff16565b61441d90919063ffffffff16565b9050808281612da957fe5b0493505050509392505050565b6060600282511015612e30576040517f08c379a000000000000000000000000000000000000000000000000000000000815260040180806020018281038252601c8152602001807f50616e63616b654c6962726172793a20494e56414c49445f504154480000000081525060200191505060405180910390fd5b815167ffffffffffffffff81118015612e4857600080fd5b50604051908082528060200260200182016040528015612e775781602001602082028036833780820191505090505b5090508281600183510381518110612e8b57fe5b6020026020010181815250506000600183510390505b6000811115612f2e57600080612ee187866001860381518110612ec057fe5b6020026020010151878681518110612ed457fe5b60200260200101516144a0565b91509150612f03848481518110612ef457fe5b60200260200101518383613bdf565b846001850381518110612f1257fe5b6020026020010181815250505050808060019003915050612ea1565b509392505050565b60008373ffffffffffffffffffffffffffffffffffffffff1663e6a4390584846040518363ffffffff1660e01b8152600401808373ffffffffffffffffffffffffffffffffffffffff1673ffffffffffffffffffffffffffffffffffffffff1681526020018273ffffffffffffffffffffffffffffffffffffffff1673ffffffffffffffffffffffffffffffffffffffff1681526020019250505060206040518083038186803b158015612fe957600080fd5b505afa158015612ffd573d6000803e3d6000fd5b505050506040513d602081101561301357600080fd5b810190808051906020019092919050505090509392505050565b61303e81613039613075565b6145d5565b50565b61304b82826147ab565b613070816001600085815260200190815260200160002061488b90919063ffffffff16565b505050565b600033905090565b61308782826148bb565b6130ac816001600085815260200190815260200160002061499c90919063ffffffff16565b505050565b606060028251101561312b576040517f08c379a000000000000000000000000000000000000000000000000000000000815260040180806020018281038252601c8152602001807f50616e63616b654c6962726172793a20494e56414c49445f504154480000000081525060200191505060405180910390fd5b815167ffffffffffffffff8111801561314357600080fd5b506040519080825280602002602001820160405280156131725781602001602082028036833780820191505090505b509050828160008151811061318357fe5b60200260200101818152505060005b6001835103811015613221576000806131d5878685815181106131b157fe5b60200260200101518760018701815181106131c857fe5b60200260200101516144a0565b915091506131f78484815181106131e857fe5b60200260200101518383612c86565b84600185018151811061320657fe5b60200260200101818152505050508080600101915050613192565b509392505050565b600060608573ffffffffffffffffffffffffffffffffffffffff166323b872dd868686604051602401808473ffffffffffffffffffffffffffffffffffffffff1673ffffffffffffffffffffffffffffffffffffffff1681526020018373ffffffffffffffffffffffffffffffffffffffff1673ffffffffffffffffffffffffffffffffffffffff16815260200182815260200193505050506040516020818303038152906040529060e01b6020820180517bffffffffffffffffffffffffffffffffffffffffffffffffffffffff83818316178352505050506040518082805190602001908083835b602083106133365780518252602082019150602081019050602083039250613313565b6001836020036101000a0380198251168184511680821785525050505050509050019150506000604051808303816000865af19150503d8060008114613398576040519150601f19603f3d011682016040523d82523d6000602084013e61339d565b606091505b50915091508180156133dd57506000815114806133dc57508080602001905160208110156133ca57600080fd5b81019080805190602001909291905050505b5b613432576040517f08c379a0000000000000000000000000000000000000000000000000000000008152600401808060200182810382526031815260200180614e296031913960400191505060405180910390fd5b505050505050565b60005b60018351038110156136df5760008084838151811061345857fe5b602002602001015185600185018151811061346f57fe5b60200260200101519150915060006134878383613e1a565b509050600087600186018151811061349b57fe5b602002602001015190506000808373ffffffffffffffffffffffffffffffffffffffff168673ffffffffffffffffffffffffffffffffffffffff16146134e3578260006134e7565b6000835b91509150600060028a510388106134fe5788613540565b61353f7f0000000000000000000000000000000000000000000000000000000000000000878c60028c018151811061353257fe5b6020026020010151612f36565b5b905061356d7f00000000000000000000000000000000000000000000000000000000000000008888612f36565b73ffffffffffffffffffffffffffffffffffffffff1663022c0d9f848484600067ffffffffffffffff811180156135a357600080fd5b506040519080825280601f01601f1916602001820160405280156135d65781602001600182028036833780820191505090505b506040518563ffffffff1660e01b8152600401808581526020018481526020018373ffffffffffffffffffffffffffffffffffffffff1673ffffffffffffffffffffffffffffffffffffffff16815260200180602001828103825283818151815260200191508051906020019080838360005b83811015613664578082015181840152602081019050613649565b50505050905090810190601f1680156136915780820380516001836020036101000a031916815260200191505b5095505050505050600060405180830381600087803b1580156136b357600080fd5b505af11580156136c7573d6000803e3d6000fd5b5050505050505050505050808060010191505061343d565b50505050565b60005b6001835103811015613b575760008084838151811061370357fe5b602002602001015185600185018151811061371a57fe5b60200260200101519150915060006137328383613e1a565b50905060006137627f00000000000000000000000000000000000000000000000000000000000000008585612f36565b90506000806000808473ffffffffffffffffffffffffffffffffffffffff16630902f1ac6040518163ffffffff1660e01b815260040160606040518083038186803b1580156137b057600080fd5b505afa1580156137c4573d6000803e3d6000fd5b505050506040513d60608110156137da57600080fd5b81019080805190602001909291908051906020019092919080519060200190929190505050506dffffffffffffffffffffffffffff1691506dffffffffffffffffffffffffffff1691506000808773ffffffffffffffffffffffffffffffffffffffff168a73ffffffffffffffffffffffffffffffffffffffff1614613861578284613864565b83835b91509150613932828b73ffffffffffffffffffffffffffffffffffffffff166370a082318a6040518263ffffffff1660e01b8152600401808273ffffffffffffffffffffffffffffffffffffffff1673ffffffffffffffffffffffffffffffffffffffff16815260200191505060206040518083038186803b1580156138e957600080fd5b505afa1580156138fd573d6000803e3d6000fd5b505050506040513d602081101561391357600080fd5b8101908080519060200190929190505050613b5c90919063ffffffff16565b955061393f868383612c86565b9450505050506000808573ffffffffffffffffffffffffffffffffffffffff168873ffffffffffffffffffffffffffffffffffffffff161461398357826000613987565b6000835b91509150600060028c51038a1061399e578a6139e0565b6139df7f0000000000000000000000000000000000000000000000000000000000000000898e60028e01815181106139d257fe5b6020026020010151612f36565b5b90508573ffffffffffffffffffffffffffffffffffffffff1663022c0d9f848484600067ffffffffffffffff81118015613a1957600080fd5b506040519080825280601f01601f191660200182016040528015613a4c5781602001600182028036833780820191505090505b506040518563ffffffff1660e01b8152600401808581526020018481526020018373ffffffffffffffffffffffffffffffffffffffff1673ffffffffffffffffffffffffffffffffffffffff16815260200180602001828103825283818151815260200191508051906020019080838360005b83811015613ada578082015181840152602081019050613abf565b50505050905090810190601f168015613b075780820380516001836020036101000a031916815260200191505b5095505050505050600060405180830381600087803b158015613b2957600080fd5b505af1158015613b3d573d6000803e3d6000fd5b5050505050505050505050505080806001019150506136e8565b505050565b6000828284039150811115613bd9576040517f08c379a00000000000000000000000000000000000000000000000000000000081526004018080602001828103825260158152602001807f64732d6d6174682d7375622d756e646572666c6f77000000000000000000000081525060200191505060405180910390fd5b92915050565b6000808411613c39576040517f08c379a000000000000000000000000000000000000000000000000000000000815260040180806020018281038252602a815260200180614dff602a913960400191505060405180910390fd5b600083118015613c495750600082115b613c9e576040517f08c379a0000000000000000000000000000000000000000000000000000000008152600401808060200182810382526026815260200180614f126026913960400191505060405180910390fd5b6000613cc7612710613cb9878761438890919063ffffffff16565b61438890919063ffffffff16565b90506000613cf26126f7613ce48887613b5c90919063ffffffff16565b61438890919063ffffffff16565b9050613d116001828481613d0257fe5b0461441d90919063ffffffff16565b925050509392505050565b6000613d2b83600001836149cc565b60001c905092915050565b6000808411613d90576040517f08c379a0000000000000000000000000000000000000000000000000000000008152600401808060200182810382526023815260200180614eca6023913960400191505060405180910390fd5b600083118015613da05750600082115b613df5576040517f08c379a0000000000000000000000000000000000000000000000000000000008152600401808060200182810382526026815260200180614f126026913960400191505060405180910390fd5b82613e09838661438890919063ffffffff16565b81613e1057fe5b0490509392505050565b6000808273ffffffffffffffffffffffffffffffffffffffff168473ffffffffffffffffffffffffffffffffffffffff161415613ea2576040517f08c379a0000000000000000000000000000000000000000000000000000000008152600401808060200182810382526023815260200180614e836023913960400191505060405180910390fd5b8273ffffffffffffffffffffffffffffffffffffffff168473ffffffffffffffffffffffffffffffffffffffff1610613edc578284613edf565b83835b8092508193505050600073ffffffffffffffffffffffffffffffffffffffff168273ffffffffffffffffffffffffffffffffffffffff161415613f8a576040517f08c379a000000000000000000000000000000000000000000000000000000000815260040180806020018281038252601c8152602001807f50616e63616b654c6962726172793a205a45524f5f414444524553530000000081525060200191505060405180910390fd5b9250929050565b6000613f9f826000016149f0565b9050919050565b600080600073ffffffffffffffffffffffffffffffffffffffff167f000000000000000000000000000000000000000000000000000000000000000073ffffffffffffffffffffffffffffffffffffffff1663e6a439058a8a6040518363ffffffff1660e01b8152600401808373ffffffffffffffffffffffffffffffffffffffff1673ffffffffffffffffffffffffffffffffffffffff1681526020018273ffffffffffffffffffffffffffffffffffffffff1673ffffffffffffffffffffffffffffffffffffffff1681526020019250505060206040518083038186803b15801561409257600080fd5b505afa1580156140a6573d6000803e3d6000fd5b505050506040513d60208110156140bc57600080fd5b810190808051906020019092919050505073ffffffffffffffffffffffffffffffffffffffff1614156141f9577f000000000000000000000000000000000000000000000000000000000000000073ffffffffffffffffffffffffffffffffffffffff1663c9c6539689896040518363ffffffff1660e01b8152600401808373ffffffffffffffffffffffffffffffffffffffff1673ffffffffffffffffffffffffffffffffffffffff1681526020018273ffffffffffffffffffffffffffffffffffffffff1673ffffffffffffffffffffffffffffffffffffffff16815260200192505050602060405180830381600087803b1580156141bc57600080fd5b505af11580156141d0573d6000803e3d6000fd5b505050506040513d60208110156141e657600080fd5b8101908080519060200190929190505050505b6000806142277f00000000000000000000000000000000000000000000000000000000000000008b8b6144a0565b9150915060008214801561423b5750600081145b1561424f578787809450819550505061437b565b600061425c898484613d36565b90508781116142cd57858110156142be576040517f08c379a0000000000000000000000000000000000000000000000000000000008152600401808060200182810382526024815260200180614f386024913960400191505060405180910390fd5b88818095508196505050614379565b60006142da898486613d36565b9050898111156142e657fe5b8781101561433f576040517f08c379a0000000000000000000000000000000000000000000000000000000008152600401808060200182810382526024815260200180614ea66024913960400191505060405180910390fd5b8089809650819750505084867fcb1652de9aeec38545fc281847b3dbfc89aab56dfa907b1ab68466f602c36fb460405160405180910390a3505b505b5050965096945050505050565b6000808214806143a557508282838502925082816143a257fe5b04145b614417576040517f08c379a00000000000000000000000000000000000000000000000000000000081526004018080602001828103825260148152602001807f64732d6d6174682d6d756c2d6f766572666c6f7700000000000000000000000081525060200191505060405180910390fd5b92915050565b600082828401915081101561449a576040517f08c379a00000000000000000000000000000000000000000000000000000000081526004018080602001828103825260148152602001807f64732d6d6174682d6164642d6f766572666c6f7700000000000000000000000081525060200191505060405180910390fd5b92915050565b60008060006144af8585613e1a565b5090506144bd868686612f36565b506000806144cc888888612f36565b73ffffffffffffffffffffffffffffffffffffffff16630902f1ac6040518163ffffffff1660e01b815260040160606040518083038186803b15801561451157600080fd5b505afa158015614525573d6000803e3d6000fd5b505050506040513d606081101561453b57600080fd5b81019080805190602001909291908051906020019092919080519060200190929190505050506dffffffffffffffffffffffffffff1691506dffffffffffffffffffffffffffff1691508273ffffffffffffffffffffffffffffffffffffffff168773ffffffffffffffffffffffffffffffffffffffff16146145bf5780826145c2565b81815b8095508196505050505050935093915050565b6145df8282612566565b6147a7576145ec81614a01565b6145fa8360001c6020614a2e565b60405160200180807f416363657373436f6e74726f6c3a206163636f756e742000000000000000000081525060170183805190602001908083835b602083106146585780518252602082019150602081019050602083039250614635565b6001836020036101000a038019825116818451168082178552505050505050905001807f206973206d697373696e6720726f6c652000000000000000000000000000000081525060110182805190602001908083835b602083106146d157805182526020820191506020810190506020830392506146ae565b6001836020036101000a038019825116818451168082178552505050505050905001925050506040516020818303038152906040526040517f08c379a00000000000000000000000000000000000000000000000000000000081526004018080602001828103825283818151815260200191508051906020019080838360005b8381101561476c578082015181840152602081019050614751565b50505050905090810190601f1680156147995780820380516001836020036101000a031916815260200191505b509250505060405180910390fd5b5050565b6147b58282612566565b61488757600160008084815260200190815260200160002060000160008373ffffffffffffffffffffffffffffffffffffffff1673ffffffffffffffffffffffffffffffffffffffff16815260200190815260200160002060006101000a81548160ff02191690831515021790555061482c613075565b73ffffffffffffffffffffffffffffffffffffffff168173ffffffffffffffffffffffffffffffffffffffff16837f2f8788117e7eff1d82e926ec794901d17c78024a50270940304540a733656f0d60405160405180910390a45b5050565b60006148b3836000018373ffffffffffffffffffffffffffffffffffffffff1660001b614c55565b905092915050565b6148c58282612566565b1561499857600080600084815260200190815260200160002060000160008373ffffffffffffffffffffffffffffffffffffffff1673ffffffffffffffffffffffffffffffffffffffff16815260200190815260200160002060006101000a81548160ff02191690831515021790555061493d613075565b73ffffffffffffffffffffffffffffffffffffffff168173ffffffffffffffffffffffffffffffffffffffff16837ff6391f5c32d9c69d2a47ea670b442974b53935d1edc7fd64eb21e047a839171b60405160405180910390a45b5050565b60006149c4836000018373ffffffffffffffffffffffffffffffffffffffff1660001b614cc5565b905092915050565b60008260000182815481106149dd57fe5b9060005260206000200154905092915050565b600081600001805490509050919050565b6060614a278273ffffffffffffffffffffffffffffffffffffffff16601460ff16614a2e565b9050919050565b6060806002836002020167ffffffffffffffff81118015614a4e57600080fd5b506040519080825280601f01601f191660200182016040528015614a815781602001600182028036833780820191505090505b5090507f300000000000000000000000000000000000000000000000000000000000000081600081518110614ab257fe5b60200101907effffffffffffffffffffffffffffffffffffffffffffffffffffffffffffff1916908160001a9053507f780000000000000000000000000000000000000000000000000000000000000081600181518110614b0f57fe5b60200101907effffffffffffffffffffffffffffffffffffffffffffffffffffffffffffff1916908160001a90535060006001846002020190505b6001811115614bd4577f3031323334353637383961626364656600000000000000000000000000000000600f861660108110614b8257fe5b1a60f81b828281518110614b9257fe5b60200101907effffffffffffffffffffffffffffffffffffffffffffffffffffffffffffff1916908160001a905350600485901c945080600190039050614b4a565b5060008414614c4b576040517f08c379a00000000000000000000000000000000000000000000000000000000081526004018080602001828103825260208152602001807f537472696e67733a20686578206c656e67746820696e73756666696369656e7481525060200191505060405180910390fd5b8091505092915050565b6000614c618383614db2565b614cba578260000182908060018154018082558091505060019003906000526020600020016000909190919091505582600001805490508360010160008481526020019081526020016000208190555060019050614cbf565b600090505b92915050565b60008083600101600084815260200190815260200160002054905060008114614da6576000600182039050600060018660000180549050039050818114614d5e576000866000018281548110614d1757fe5b9060005260206000200154905080876000018481548110614d3457fe5b90600052602060002001819055508387600101600083815260200190815260200160002081905550505b85600001805480614d6b57fe5b600190038181906000526020600020016000905590558560010160008681526020019081526020016000206000905560019350505050614dac565b60009150505b92915050565b60008083600101600084815260200190815260200160002054141590509291505056fe50616e63616b654c6962726172793a20494e53554646494349454e545f494e5055545f414d4f554e5450616e63616b654c6962726172793a20494e53554646494349454e545f4f55545055545f414d4f554e545472616e7366657248656c7065723a3a7472616e7366657246726f6d3a207472616e7366657246726f6d206661696c656450616e63616b65526f757465723a20494e53554646494349454e545f4f55545055545f414d4f554e5450616e63616b654c6962726172793a204944454e544943414c5f41444452455353455350616e63616b65526f757465723a20494e53554646494349454e545f415f414d4f554e5450616e63616b654c6962726172793a20494e53554646494349454e545f414d4f554e5450616e63616b65526f757465723a204558434553534956455f494e5055545f414d4f554e5450616e63616b654c6962726172793a20494e53554646494349454e545f4c495155494449545950616e63616b65526f757465723a20494e53554646494349454e545f425f414d4f554e54416363657373436f6e74726f6c3a2063616e206f6e6c792072656e6f756e636520726f6c657320666f722073656c66a26469706673582212205276b5777e3a9f6f97cf402cc81cb2cc39b5dfe5b10b89132d79b17ddea35a4064736f6c63430006060033",
  "linkReferences": {},
  "deployedLinkReferences": {}
}